{
  "contractName": "SocialMedia",
  "abi": [
    {
      "inputs": [],
      "stateMutability": "nonpayable",
      "type": "constructor"
    },
    {
      "anonymous": false,
      "inputs": [
        {
          "indexed": false,
          "internalType": "address",
          "name": "sender",
          "type": "address"
        },
        {
          "indexed": false,
          "internalType": "uint256",
          "name": "amount",
          "type": "uint256"
        }
      ],
      "name": "TransferReceived",
      "type": "event"
    },
    {
      "anonymous": false,
      "inputs": [
        {
          "indexed": false,
          "internalType": "uint256",
          "name": "senderId",
          "type": "uint256"
        },
        {
          "indexed": false,
          "internalType": "uint256",
          "name": "timestamp",
          "type": "uint256"
        },
        {
          "indexed": false,
          "internalType": "string",
          "name": "message",
          "type": "string"
        },
        {
          "indexed": false,
          "internalType": "string",
          "name": "image",
          "type": "string"
        },
        {
          "indexed": false,
          "internalType": "string",
          "name": "author",
          "type": "string"
        },
        {
          "indexed": false,
          "internalType": "uint256",
          "name": "total_post",
          "type": "uint256"
        },
        {
          "indexed": false,
          "internalType": "uint256",
          "name": "postid",
          "type": "uint256"
        }
      ],
      "name": "display",
      "type": "event"
    },
    {
      "inputs": [],
      "name": "owner",
      "outputs": [
        {
          "internalType": "address",
          "name": "",
          "type": "address"
        }
      ],
      "stateMutability": "view",
      "type": "function"
    },
    {
      "inputs": [
        {
          "internalType": "string",
          "name": "_postdesc",
          "type": "string"
        }
      ],
      "name": "displayPost",
      "outputs": [],
      "stateMutability": "nonpayable",
      "type": "function"
    },
    {
      "inputs": [
        {
          "internalType": "uint256",
          "name": "userId",
          "type": "uint256"
        },
        {
          "internalType": "string",
          "name": "userName",
          "type": "string"
        },
        {
          "internalType": "string",
          "name": "postDescription",
          "type": "string"
        },
        {
          "internalType": "string",
          "name": "imageHash",
          "type": "string"
        }
      ],
      "name": "SetPost",
      "outputs": [],
      "stateMutability": "nonpayable",
      "type": "function"
    },
    {
      "inputs": [
        {
          "internalType": "uint256",
          "name": "id",
          "type": "uint256"
        }
      ],
      "name": "getPostById",
      "outputs": [
        {
          "internalType": "uint256",
          "name": "userid",
          "type": "uint256"
        },
        {
          "internalType": "uint256",
          "name": "timestamps",
          "type": "uint256"
        },
        {
          "internalType": "string",
          "name": "desc",
          "type": "string"
        },
        {
          "internalType": "string",
          "name": "avathash",
          "type": "string"
        },
        {
          "internalType": "string",
          "name": "authname",
          "type": "string"
        },
        {
          "internalType": "uint256",
          "name": "total_post",
          "type": "uint256"
        }
      ],
      "stateMutability": "view",
      "type": "function"
    },
    {
      "inputs": [
        {
          "internalType": "address payable",
          "name": "sender",
          "type": "address"
        },
        {
          "internalType": "uint256",
          "name": "amount",
          "type": "uint256"
        }
      ],
      "name": "SupportMe",
      "outputs": [],
      "stateMutability": "payable",
      "type": "function"
    }
  ],
  "bytecode": "0x608060405234801561001057600080fd5b50336000806101000a81548173ffffffffffffffffffffffffffffffffffffffff021916908373ffffffffffffffffffffffffffffffffffffffff160217905550611392806100606000396000f3fe60806040526004361061004a5760003560e01c806364e958951461004f5780638da5cb5b146100915780638fc931a2146100bc578063a711fafd146100e5578063dc4fefa11461010e575b600080fd5b34801561005b57600080fd5b5061007660048036038101906100719190610c18565b61012a565b60405161008896959493929190610ced565b60405180910390f35b34801561009d57600080fd5b506100a6610539565b6040516100b39190610da4565b60405180910390f35b3480156100c857600080fd5b506100e360048036038101906100de9190610ef4565b61055d565b005b3480156100f157600080fd5b5061010c60048036038101906101079190610f3d565b6106eb565b005b61012860048036038101906101239190611036565b6109de565b005b6000806060806060600060036000600460008a815260200190815260200160002060009054906101000a900473ffffffffffffffffffffffffffffffffffffffff1673ffffffffffffffffffffffffffffffffffffffff1673ffffffffffffffffffffffffffffffffffffffff168152602001908152602001600020600001544260036000600460008c815260200190815260200160002060009054906101000a900473ffffffffffffffffffffffffffffffffffffffff1673ffffffffffffffffffffffffffffffffffffffff1673ffffffffffffffffffffffffffffffffffffffff16815260200190815260200160002060030160036000600460008d815260200190815260200160002060009054906101000a900473ffffffffffffffffffffffffffffffffffffffff1673ffffffffffffffffffffffffffffffffffffffff1673ffffffffffffffffffffffffffffffffffffffff16815260200190815260200160002060010160036000600460008e815260200190815260200160002060009054906101000a900473ffffffffffffffffffffffffffffffffffffffff1673ffffffffffffffffffffffffffffffffffffffff1673ffffffffffffffffffffffffffffffffffffffff16815260200190815260200160002060020160036000600460008f815260200190815260200160002060009054906101000a900473ffffffffffffffffffffffffffffffffffffffff1673ffffffffffffffffffffffffffffffffffffffff1673ffffffffffffffffffffffffffffffffffffffff1681526020019081526020016000206005015483805461038c906110a5565b80601f01602080910402602001604051908101604052809291908181526020018280546103b8906110a5565b80156104055780601f106103da57610100808354040283529160200191610405565b820191906000526020600020905b8154815290600101906020018083116103e857829003601f168201915b50505050509350828054610418906110a5565b80601f0160208091040260200160405190810160405280929190818152602001828054610444906110a5565b80156104915780601f1061046657610100808354040283529160200191610491565b820191906000526020600020905b81548152906001019060200180831161047457829003601f168201915b505050505092508180546104a4906110a5565b80601f01602080910402602001604051908101604052809291908181526020018280546104d0906110a5565b801561051d5780601f106104f25761010080835404028352916020019161051d565b820191906000526020600020905b81548152906001019060200180831161050057829003601f168201915b5050505050915095509550955095509550955091939550919395565b60008054906101000a900473ffffffffffffffffffffffffffffffffffffffff1681565b7f833c18acad008c7c18f4a6ce1abaad862f3e145e2c951dc2341ae52ee054d9ae600360003373ffffffffffffffffffffffffffffffffffffffff1673ffffffffffffffffffffffffffffffffffffffff168152602001908152602001600020600001544283600360003373ffffffffffffffffffffffffffffffffffffffff1673ffffffffffffffffffffffffffffffffffffffff168152602001908152602001600020600101600360003373ffffffffffffffffffffffffffffffffffffffff1673ffffffffffffffffffffffffffffffffffffffff168152602001908152602001600020600201600360003373ffffffffffffffffffffffffffffffffffffffff1673ffffffffffffffffffffffffffffffffffffffff16815260200190815260200160002060050154600360003373ffffffffffffffffffffffffffffffffffffffff1673ffffffffffffffffffffffffffffffffffffffff168152602001908152602001600020600401546040516106e0979695949392919061116c565b60405180910390a150565b6005600085815260200190815260200160002060009054906101000a900460ff1661074557600060028190555060016005600086815260200190815260200160002060006101000a81548160ff0219169083151502179055505b336004600086815260200190815260200160002060006101000a81548173ffffffffffffffffffffffffffffffffffffffff021916908373ffffffffffffffffffffffffffffffffffffffff160217905550600160008154809291906107aa9061121f565b9190505550600260008154809291906107c29061121f565b919050555083600360003373ffffffffffffffffffffffffffffffffffffffff1673ffffffffffffffffffffffffffffffffffffffff1681526020019081526020016000206000018190555082600360003373ffffffffffffffffffffffffffffffffffffffff1673ffffffffffffffffffffffffffffffffffffffff1681526020019081526020016000206002019080519060200190610864929190610b2b565b5081600360003373ffffffffffffffffffffffffffffffffffffffff1673ffffffffffffffffffffffffffffffffffffffff16815260200190815260200160002060030190805190602001906108bb929190610b2b565b5080600360003373ffffffffffffffffffffffffffffffffffffffff1673ffffffffffffffffffffffffffffffffffffffff1681526020019081526020016000206001019080519060200190610912929190610b2b565b50600154600360003373ffffffffffffffffffffffffffffffffffffffff1673ffffffffffffffffffffffffffffffffffffffff16815260200190815260200160002060040181905550600254600360006004600088815260200190815260200160002060009054906101000a900473ffffffffffffffffffffffffffffffffffffffff1673ffffffffffffffffffffffffffffffffffffffff1673ffffffffffffffffffffffffffffffffffffffff1681526020019081526020016000206005018190555050505050565b60008054906101000a900473ffffffffffffffffffffffffffffffffffffffff1673ffffffffffffffffffffffffffffffffffffffff163373ffffffffffffffffffffffffffffffffffffffff161415610a3757600080fd5b600073ffffffffffffffffffffffffffffffffffffffff168273ffffffffffffffffffffffffffffffffffffffff161415610aa7576040517f08c379a0000000000000000000000000000000000000000000000000000000008152600401610a9e906112b4565b60405180910390fd5b8173ffffffffffffffffffffffffffffffffffffffff166108fc829081150290604051600060405180830381858888f19350505050158015610aed573d6000803e3d6000fd5b507ff1b03f708b9c39f453fe3f0cef84164c7d6f7df836df0796e1e9c2bce6ee397e8282604051610b1f929190611333565b60405180910390a15050565b828054610b37906110a5565b90600052602060002090601f016020900481019282610b595760008555610ba0565b82601f10610b7257805160ff1916838001178555610ba0565b82800160010185558215610ba0579182015b82811115610b9f578251825591602001919060010190610b84565b5b509050610bad9190610bb1565b5090565b5b80821115610bca576000816000905550600101610bb2565b5090565b6000604051905090565b600080fd5b600080fd5b6000819050919050565b610bf581610be2565b8114610c0057600080fd5b50565b600081359050610c1281610bec565b92915050565b600060208284031215610c2e57610c2d610bd8565b5b6000610c3c84828501610c03565b91505092915050565b610c4e81610be2565b82525050565b600081519050919050565b600082825260208201905092915050565b60005b83811015610c8e578082015181840152602081019050610c73565b83811115610c9d576000848401525b50505050565b6000601f19601f8301169050919050565b6000610cbf82610c54565b610cc98185610c5f565b9350610cd9818560208601610c70565b610ce281610ca3565b840191505092915050565b600060c082019050610d026000830189610c45565b610d0f6020830188610c45565b8181036040830152610d218187610cb4565b90508181036060830152610d358186610cb4565b90508181036080830152610d498185610cb4565b9050610d5860a0830184610c45565b979650505050505050565b600073ffffffffffffffffffffffffffffffffffffffff82169050919050565b6000610d8e82610d63565b9050919050565b610d9e81610d83565b82525050565b6000602082019050610db96000830184610d95565b92915050565b600080fd5b600080fd5b7f4e487b7100000000000000000000000000000000000000000000000000000000600052604160045260246000fd5b610e0182610ca3565b810181811067ffffffffffffffff82111715610e2057610e1f610dc9565b5b80604052505050565b6000610e33610bce565b9050610e3f8282610df8565b919050565b600067ffffffffffffffff821115610e5f57610e5e610dc9565b5b610e6882610ca3565b9050602081019050919050565b82818337600083830152505050565b6000610e97610e9284610e44565b610e29565b905082815260208101848484011115610eb357610eb2610dc4565b5b610ebe848285610e75565b509392505050565b600082601f830112610edb57610eda610dbf565b5b8135610eeb848260208601610e84565b91505092915050565b600060208284031215610f0a57610f09610bd8565b5b600082013567ffffffffffffffff811115610f2857610f27610bdd565b5b610f3484828501610ec6565b91505092915050565b60008060008060808587031215610f5757610f56610bd8565b5b6000610f6587828801610c03565b945050602085013567ffffffffffffffff811115610f8657610f85610bdd565b5b610f9287828801610ec6565b935050604085013567ffffffffffffffff811115610fb357610fb2610bdd565b5b610fbf87828801610ec6565b925050606085013567ffffffffffffffff811115610fe057610fdf610bdd565b5b610fec87828801610ec6565b91505092959194509250565b600061100382610d63565b9050919050565b61101381610ff8565b811461101e57600080fd5b50565b6000813590506110308161100a565b92915050565b6000806040838503121561104d5761104c610bd8565b5b600061105b85828601611021565b925050602061106c85828601610c03565b9150509250929050565b7f4e487b7100000000000000000000000000000000000000000000000000000000600052602260045260246000fd5b600060028204905060018216806110bd57607f821691505b602082108114156110d1576110d0611076565b5b50919050565b60008190508160005260206000209050919050565b600081546110f9816110a5565b6111038186610c5f565b9450600182166000811461111e576001811461113057611163565b60ff1983168652602086019350611163565b611139856110d7565b60005b8381101561115b5781548189015260018201915060208101905061113c565b808801955050505b50505092915050565b600060e082019050611181600083018a610c45565b61118e6020830189610c45565b81810360408301526111a08188610cb4565b905081810360608301526111b481876110ec565b905081810360808301526111c881866110ec565b90506111d760a0830185610c45565b6111e460c0830184610c45565b98975050505050505050565b7f4e487b7100000000000000000000000000000000000000000000000000000000600052601160045260246000fd5b600061122a82610be2565b91507fffffffffffffffffffffffffffffffffffffffffffffffffffffffffffffffff82141561125d5761125c6111f0565b5b600182019050919050565b7f53656e64657220616464726573732063616e6e6f74206265207a65726f2e0000600082015250565b600061129e601e83610c5f565b91506112a982611268565b602082019050919050565b600060208201905081810360008301526112cd81611291565b9050919050565b6000819050919050565b60006112f96112f46112ef84610d63565b6112d4565b610d63565b9050919050565b600061130b826112de565b9050919050565b600061131d82611300565b9050919050565b61132d81611312565b82525050565b60006040820190506113486000830185611324565b6113556020830184610c45565b939250505056fea264697066735822122023351edaf43725b047953e6d3d0c479ed249d549aee53c127b7fa0d195275b9e64736f6c63430008090033",
  "immutableReferences": {},
  "source": "// SPDX-License-Identifier: MIT\r\npragma solidity ^0.8.9;\r\n\r\n\r\ncontract SocialMedia{\r\n    address public owner;\r\n    uint256 private post_count;\r\n    uint private total_posts;\r\n\r\n     constructor(){\r\n        owner=msg.sender;\r\n    }\r\n\r\n    modifier notOwner(){\r\n        require(msg.sender!= owner);\r\n        _;\r\n    }\r\n    \r\n    // struct User{\r\n    //     uint256 user_id;\r\n    //     address user_addr;\r\n    // }\r\n\r\n    struct Post{\r\n        uint256 userId;\r\n        string _postImageHash;\r\n        string authorName;\r\n        string Description;\r\n        uint256 post_id;\r\n        uint256 total_post;\r\n    }\r\n\r\n    mapping (address => Post) private addressToUserPost;\r\n    mapping (uint256 => address) private postToUserAddress;\r\n    // User[] public userslist;\r\n    // User userInfo;\r\n    mapping (uint256 => bool) private notuserInfo;\r\n\r\n   \r\n    // function balanceof() public view returns(uint){\r\n    //     return address(this).balance;\r\n    // }\r\n\r\n    event display(uint256 senderId, uint256 timestamp, string message, string image, string author , uint total_post, uint postid);\r\n    event TransferReceived(address sender, uint256 amount);\r\n\r\n    // Function for a user to post a message in our Social media app, user just need to write the description\r\n    function displayPost(string memory _postdesc) public {\r\n        emit display(addressToUserPost[msg.sender].userId, block.timestamp, _postdesc , addressToUserPost[msg.sender]._postImageHash,  addressToUserPost[msg.sender].authorName ,addressToUserPost[msg.sender].total_post,addressToUserPost[msg.sender].post_id );\r\n    }\r\n    // function to get the Post  details from a user \r\n    function SetPost( uint256 userId, string memory userName, string memory postDescription , string memory imageHash ) public{\r\n\r\n        if(!notuserInfo[userId]){\r\n            total_posts=0;\r\n            notuserInfo[userId]=true;\r\n        }\r\n        postToUserAddress[ userId] = msg.sender;\r\n        post_count++;\r\n        total_posts++;\r\n        addressToUserPost[ msg.sender].userId = userId;\r\n        addressToUserPost[ msg.sender].authorName = userName;\r\n        addressToUserPost[ msg.sender].Description = postDescription;\r\n        addressToUserPost[ msg.sender]._postImageHash = imageHash;\r\n        addressToUserPost[ msg.sender].post_id= post_count;\r\n        addressToUserPost[postToUserAddress[ userId]].total_post= total_posts;\r\n        \r\n    }\r\n\r\n    // Function to Display the user's post by PostId\r\n    function getPostById(uint256 id ) public view returns(uint256 userid, uint timestamps, string memory desc,string memory avathash, string memory authname,uint256 total_post ){\r\n        return (addressToUserPost[postToUserAddress[id]].userId, block.timestamp, addressToUserPost[postToUserAddress[id]].Description ,addressToUserPost[postToUserAddress[id]]._postImageHash,  addressToUserPost[postToUserAddress[id]].authorName,addressToUserPost[postToUserAddress[id]].total_post);\r\n    }\r\n\r\n    // Tipping Other User\r\n\r\n    function SupportMe( address payable sender,uint256 amount ) notOwner payable external {\r\n        require(sender != address(0), \"Sender address cannot be zero.\");\r\n        sender.transfer(amount);\r\n        emit TransferReceived(sender, amount);\r\n    }\r\n}",
  "sourcePath": "C:\\Users\\91831\\Desktop\\PROJECTS\\social_media_dapp\\contracts\\Social.sol",
  "compiler": {
    "name": "solc",
    "version": "0.8.9+commit.e5eed63a.Emscripten.clang"
  },
  "schemaVersion": "3.4.3",
  "updatedAt": "2022-01-21T11:44:54.448Z",
  "devdoc": {
    "kind": "dev",
    "methods": {},
    "version": 1
  },
  "userdoc": {
    "kind": "user",
    "methods": {},
    "version": 1
  }
}