{
  "contractName": "SocialMedia",
  "abi": [
    {
      "inputs": [],
      "stateMutability": "nonpayable",
      "type": "constructor"
    },
    {
      "anonymous": false,
      "inputs": [
        {
          "indexed": false,
          "internalType": "address",
          "name": "sender",
          "type": "address"
        },
        {
          "indexed": false,
          "internalType": "uint256",
          "name": "amount",
          "type": "uint256"
        }
      ],
      "name": "TransferReceived",
      "type": "event"
    },
    {
      "inputs": [
        {
          "internalType": "address",
          "name": "",
          "type": "address"
        },
        {
          "internalType": "uint256",
          "name": "",
          "type": "uint256"
        }
      ],
      "name": "addressToUserPost",
      "outputs": [
        {
          "internalType": "uint256",
          "name": "userId",
          "type": "uint256"
        },
        {
          "internalType": "string",
          "name": "_postImageHash",
          "type": "string"
        },
        {
          "internalType": "string",
          "name": "authorName",
          "type": "string"
        },
        {
          "internalType": "string",
          "name": "Description",
          "type": "string"
        },
        {
          "internalType": "uint256",
          "name": "timestamp",
          "type": "uint256"
        },
        {
          "internalType": "uint256",
          "name": "post_id",
          "type": "uint256"
        }
      ],
      "stateMutability": "view",
      "type": "function"
    },
    {
      "inputs": [
        {
          "internalType": "address",
          "name": "",
          "type": "address"
        }
      ],
      "name": "notfirst_time",
      "outputs": [
        {
          "internalType": "bool",
          "name": "",
          "type": "bool"
        }
      ],
      "stateMutability": "view",
      "type": "function"
    },
    {
      "inputs": [],
      "name": "owner",
      "outputs": [
        {
          "internalType": "address",
          "name": "",
          "type": "address"
        }
      ],
      "stateMutability": "view",
      "type": "function"
    },
    {
      "inputs": [
        {
          "internalType": "uint256",
          "name": "",
          "type": "uint256"
        }
      ],
      "name": "postToUserAddress",
      "outputs": [
        {
          "internalType": "address",
          "name": "",
          "type": "address"
        }
      ],
      "stateMutability": "view",
      "type": "function"
    },
    {
      "inputs": [],
      "name": "post_counter",
      "outputs": [
        {
          "internalType": "uint256",
          "name": "",
          "type": "uint256"
        }
      ],
      "stateMutability": "view",
      "type": "function"
    },
    {
      "inputs": [
        {
          "internalType": "address",
          "name": "",
          "type": "address"
        }
      ],
      "name": "post_countermap",
      "outputs": [
        {
          "internalType": "uint256",
          "name": "",
          "type": "uint256"
        }
      ],
      "stateMutability": "view",
      "type": "function"
    },
    {
      "inputs": [
        {
          "internalType": "uint256",
          "name": "",
          "type": "uint256"
        }
      ],
      "name": "postslist",
      "outputs": [
        {
          "internalType": "uint256",
          "name": "userId",
          "type": "uint256"
        },
        {
          "internalType": "string",
          "name": "_postImageHash",
          "type": "string"
        },
        {
          "internalType": "string",
          "name": "authorName",
          "type": "string"
        },
        {
          "internalType": "string",
          "name": "Description",
          "type": "string"
        },
        {
          "internalType": "uint256",
          "name": "timestamp",
          "type": "uint256"
        },
        {
          "internalType": "uint256",
          "name": "post_id",
          "type": "uint256"
        }
      ],
      "stateMutability": "view",
      "type": "function"
    },
    {
      "inputs": [],
      "name": "user_counter",
      "outputs": [
        {
          "internalType": "uint256",
          "name": "",
          "type": "uint256"
        }
      ],
      "stateMutability": "view",
      "type": "function"
    },
    {
      "inputs": [
        {
          "internalType": "address",
          "name": "",
          "type": "address"
        }
      ],
      "name": "users",
      "outputs": [
        {
          "internalType": "uint256",
          "name": "user_id",
          "type": "uint256"
        },
        {
          "internalType": "address",
          "name": "user_addr",
          "type": "address"
        }
      ],
      "stateMutability": "view",
      "type": "function"
    },
    {
      "inputs": [
        {
          "internalType": "uint256",
          "name": "",
          "type": "uint256"
        }
      ],
      "name": "userslist",
      "outputs": [
        {
          "internalType": "uint256",
          "name": "user_id",
          "type": "uint256"
        },
        {
          "internalType": "address",
          "name": "user_addr",
          "type": "address"
        }
      ],
      "stateMutability": "view",
      "type": "function"
    },
    {
      "inputs": [
        {
          "internalType": "uint256",
          "name": "userId",
          "type": "uint256"
        },
        {
          "internalType": "string",
          "name": "userName",
          "type": "string"
        },
        {
          "internalType": "string",
          "name": "postDescription",
          "type": "string"
        },
        {
          "internalType": "string",
          "name": "imageHash",
          "type": "string"
        }
      ],
      "name": "SetPost",
      "outputs": [],
      "stateMutability": "nonpayable",
      "type": "function"
    },
    {
      "inputs": [],
      "name": "getallposts",
      "outputs": [
        {
          "components": [
            {
              "internalType": "uint256",
              "name": "userId",
              "type": "uint256"
            },
            {
              "internalType": "string",
              "name": "_postImageHash",
              "type": "string"
            },
            {
              "internalType": "string",
              "name": "authorName",
              "type": "string"
            },
            {
              "internalType": "string",
              "name": "Description",
              "type": "string"
            },
            {
              "internalType": "uint256",
              "name": "timestamp",
              "type": "uint256"
            },
            {
              "internalType": "uint256",
              "name": "post_id",
              "type": "uint256"
            }
          ],
          "internalType": "struct SocialMedia.Post[]",
          "name": "",
          "type": "tuple[]"
        }
      ],
      "stateMutability": "view",
      "type": "function"
    },
    {
      "inputs": [
        {
          "internalType": "uint256",
          "name": "id",
          "type": "uint256"
        }
      ],
      "name": "getpostbyid",
      "outputs": [
        {
          "components": [
            {
              "internalType": "uint256",
              "name": "userId",
              "type": "uint256"
            },
            {
              "internalType": "string",
              "name": "_postImageHash",
              "type": "string"
            },
            {
              "internalType": "string",
              "name": "authorName",
              "type": "string"
            },
            {
              "internalType": "string",
              "name": "Description",
              "type": "string"
            },
            {
              "internalType": "uint256",
              "name": "timestamp",
              "type": "uint256"
            },
            {
              "internalType": "uint256",
              "name": "post_id",
              "type": "uint256"
            }
          ],
          "internalType": "struct SocialMedia.Post",
          "name": "",
          "type": "tuple"
        }
      ],
      "stateMutability": "view",
      "type": "function"
    },
    {
      "inputs": [
        {
          "internalType": "address",
          "name": "user_addr",
          "type": "address"
        },
        {
          "internalType": "uint256",
          "name": "id",
          "type": "uint256"
        }
      ],
      "name": "getpostsbyuser",
      "outputs": [
        {
          "components": [
            {
              "internalType": "uint256",
              "name": "userId",
              "type": "uint256"
            },
            {
              "internalType": "string",
              "name": "_postImageHash",
              "type": "string"
            },
            {
              "internalType": "string",
              "name": "authorName",
              "type": "string"
            },
            {
              "internalType": "string",
              "name": "Description",
              "type": "string"
            },
            {
              "internalType": "uint256",
              "name": "timestamp",
              "type": "uint256"
            },
            {
              "internalType": "uint256",
              "name": "post_id",
              "type": "uint256"
            }
          ],
          "internalType": "struct SocialMedia.Post",
          "name": "",
          "type": "tuple"
        }
      ],
      "stateMutability": "view",
      "type": "function"
    },
    {
      "inputs": [
        {
          "internalType": "address",
          "name": "user_addr",
          "type": "address"
        }
      ],
      "name": "getallpostbyuser",
      "outputs": [
        {
          "components": [
            {
              "internalType": "uint256",
              "name": "userId",
              "type": "uint256"
            },
            {
              "internalType": "string",
              "name": "_postImageHash",
              "type": "string"
            },
            {
              "internalType": "string",
              "name": "authorName",
              "type": "string"
            },
            {
              "internalType": "string",
              "name": "Description",
              "type": "string"
            },
            {
              "internalType": "uint256",
              "name": "timestamp",
              "type": "uint256"
            },
            {
              "internalType": "uint256",
              "name": "post_id",
              "type": "uint256"
            }
          ],
          "internalType": "struct SocialMedia.Post[]",
          "name": "",
          "type": "tuple[]"
        }
      ],
      "stateMutability": "view",
      "type": "function"
    },
    {
      "inputs": [
        {
          "internalType": "address payable",
          "name": "sender",
          "type": "address"
        },
        {
          "internalType": "uint256",
          "name": "amount",
          "type": "uint256"
        }
      ],
      "name": "SupportMe",
      "outputs": [],
      "stateMutability": "payable",
      "type": "function"
    },
    {
      "inputs": [
        {
          "internalType": "address",
          "name": "user_addr",
          "type": "address"
        }
      ],
      "name": "first_time",
      "outputs": [],
      "stateMutability": "nonpayable",
      "type": "function"
    }
  ],
  "bytecode": "0x608060405234801561001057600080fd5b50336000806101000a81548173ffffffffffffffffffffffffffffffffffffffff021916908373ffffffffffffffffffffffffffffffffffffffff1602179055506124a7806100606000396000f3fe6080604052600436106100fe5760003560e01c80639e1ae6b511610095578063ac107ada11610064578063ac107ada14610383578063cb48fe37146103c5578063cb706c9414610407578063dc4fefa114610432578063f82aa3c61461044e576100fe565b80639e1ae6b5146102a1578063a35a9f4e146102df578063a711fafd1461031c578063a87430ba14610345576100fe565b8063796bcf09116100d1578063796bcf09146101e5578063874717ee1461020e5780638bb6b2841461024b5780638da5cb5b14610276576100fe565b80631de144cd146101035780632c5d4bdc1461012e578063378d32601461016b578063468a2b06146101a8575b600080fd5b34801561010f57600080fd5b5061011861048b565b6040516101259190611d09565b60405180910390f35b34801561013a57600080fd5b5061015560048036038101906101509190611d9d565b6106be565b6040516101629190611de5565b60405180910390f35b34801561017757600080fd5b50610192600480360381019061018d9190611e2c565b6106de565b60405161019f9190611ef0565b60405180910390f35b3480156101b457600080fd5b506101cf60048036038101906101ca9190611d9d565b6108ee565b6040516101dc9190611f21565b60405180910390f35b3480156101f157600080fd5b5061020c60048036038101906102079190611d9d565b610906565b005b34801561021a57600080fd5b5061023560048036038101906102309190611e2c565b610ba9565b6040516102429190611f4b565b60405180910390f35b34801561025757600080fd5b50610260610bdc565b60405161026d9190611f21565b60405180910390f35b34801561028257600080fd5b5061028b610be2565b6040516102989190611f4b565b60405180910390f35b3480156102ad57600080fd5b506102c860048036038101906102c39190611e2c565b610c06565b6040516102d6929190611f66565b60405180910390f35b3480156102eb57600080fd5b5061030660048036038101906103019190611f8f565b610c5a565b6040516103139190611ef0565b60405180910390f35b34801561032857600080fd5b50610343600480360381019061033e9190612104565b610ea8565b005b34801561035157600080fd5b5061036c60048036038101906103679190611d9d565b6111f3565b60405161037a929190611f66565b60405180910390f35b34801561038f57600080fd5b506103aa60048036038101906103a59190611e2c565b611237565b6040516103bc96959493929190612209565b60405180910390f35b3480156103d157600080fd5b506103ec60048036038101906103e79190611f8f565b61141b565b6040516103fe96959493929190612209565b60405180910390f35b34801561041357600080fd5b5061041c61160c565b6040516104299190611f21565b60405180910390f35b61044c600480360381019061044791906122bd565b611612565b005b34801561045a57600080fd5b5061047560048036038101906104709190611d9d565b611726565b6040516104829190611d09565b60405180910390f35b60606008805480602002602001604051908101604052809291908181526020016000905b828210156106b557838290600052602060002090600602016040518060c0016040529081600082015481526020016001820180546104ec9061232c565b80601f01602080910402602001604051908101604052809291908181526020018280546105189061232c565b80156105655780601f1061053a57610100808354040283529160200191610565565b820191906000526020600020905b81548152906001019060200180831161054857829003601f168201915b5050505050815260200160028201805461057e9061232c565b80601f01602080910402602001604051908101604052809291908181526020018280546105aa9061232c565b80156105f75780601f106105cc576101008083540402835291602001916105f7565b820191906000526020600020905b8154815290600101906020018083116105da57829003601f168201915b505050505081526020016003820180546106109061232c565b80601f016020809104026020016040519081016040528092919081815260200182805461063c9061232c565b80156106895780601f1061065e57610100808354040283529160200191610689565b820191906000526020600020905b81548152906001019060200180831161066c57829003601f168201915b5050505050815260200160048201548152602001600582015481525050815260200190600101906104af565b50505050905090565b600f6020528060005260406000206000915054906101000a900460ff1681565b6106e6611998565b600882815481106106fa576106f961235e565b5b90600052602060002090600602016040518060c00160405290816000820154815260200160018201805461072d9061232c565b80601f01602080910402602001604051908101604052809291908181526020018280546107599061232c565b80156107a65780601f1061077b576101008083540402835291602001916107a6565b820191906000526020600020905b81548152906001019060200180831161078957829003601f168201915b505050505081526020016002820180546107bf9061232c565b80601f01602080910402602001604051908101604052809291908181526020018280546107eb9061232c565b80156108385780601f1061080d57610100808354040283529160200191610838565b820191906000526020600020905b81548152906001019060200180831161081b57829003601f168201915b505050505081526020016003820180546108519061232c565b80601f016020809104026020016040519081016040528092919081815260200182805461087d9061232c565b80156108ca5780601f1061089f576101008083540402835291602001916108ca565b820191906000526020600020905b8154815290600101906020018083116108ad57829003601f168201915b50505050508152602001600482015481526020016005820154815250509050919050565b60046020528060005260406000206000915090505481565b600f60008273ffffffffffffffffffffffffffffffffffffffff1673ffffffffffffffffffffffffffffffffffffffff16815260200190815260200160002060009054906101000a900460ff161561095d57610ba6565b6001600f60008373ffffffffffffffffffffffffffffffffffffffff1673ffffffffffffffffffffffffffffffffffffffff16815260200190815260200160002060006101000a81548160ff021916908315150217905550604051806040016040528060015481526020018273ffffffffffffffffffffffffffffffffffffffff1681525060066000820151816000015560208201518160010160006101000a81548173ffffffffffffffffffffffffffffffffffffffff021916908373ffffffffffffffffffffffffffffffffffffffff16021790555090505060016000815480929190610a4b906123bc565b9190505550600560069080600181540180825580915050600190039060005260206000209060020201600090919091909150600082015481600001556001820160009054906101000a900473ffffffffffffffffffffffffffffffffffffffff168160010160006101000a81548173ffffffffffffffffffffffffffffffffffffffff021916908373ffffffffffffffffffffffffffffffffffffffff16021790555050506006600360008373ffffffffffffffffffffffffffffffffffffffff1673ffffffffffffffffffffffffffffffffffffffff168152602001908152602001600020600082015481600001556001820160009054906101000a900473ffffffffffffffffffffffffffffffffffffffff168160010160006101000a81548173ffffffffffffffffffffffffffffffffffffffff021916908373ffffffffffffffffffffffffffffffffffffffff1602179055509050505b50565b60116020528060005260406000206000915054906101000a900473ffffffffffffffffffffffffffffffffffffffff1681565b60025481565b60008054906101000a900473ffffffffffffffffffffffffffffffffffffffff1681565b60058181548110610c1657600080fd5b90600052602060002090600202016000915090508060000154908060010160009054906101000a900473ffffffffffffffffffffffffffffffffffffffff16905082565b610c62611998565b601060008473ffffffffffffffffffffffffffffffffffffffff1673ffffffffffffffffffffffffffffffffffffffff1681526020019081526020016000208281548110610cb357610cb261235e565b5b90600052602060002090600602016040518060c001604052908160008201548152602001600182018054610ce69061232c565b80601f0160208091040260200160405190810160405280929190818152602001828054610d129061232c565b8015610d5f5780601f10610d3457610100808354040283529160200191610d5f565b820191906000526020600020905b815481529060010190602001808311610d4257829003601f168201915b50505050508152602001600282018054610d789061232c565b80601f0160208091040260200160405190810160405280929190818152602001828054610da49061232c565b8015610df15780601f10610dc657610100808354040283529160200191610df1565b820191906000526020600020905b815481529060010190602001808311610dd457829003601f168201915b50505050508152602001600382018054610e0a9061232c565b80601f0160208091040260200160405190810160405280929190818152602001828054610e369061232c565b8015610e835780601f10610e5857610100808354040283529160200191610e83565b820191906000526020600020905b815481529060010190602001808311610e6657829003601f168201915b5050505050815260200160048201548152602001600582015481525050905092915050565b610eb133610906565b336011600086815260200190815260200160002060006101000a81548173ffffffffffffffffffffffffffffffffffffffff021916908373ffffffffffffffffffffffffffffffffffffffff1602179055506040518060c00160405280858152602001828152602001848152602001838152602001428152602001600460003373ffffffffffffffffffffffffffffffffffffffff1673ffffffffffffffffffffffffffffffffffffffff168152602001908152602001600020548152506009600082015181600001556020820151816001019080519060200190610f979291906119ce565b506040820151816002019080519060200190610fb49291906119ce565b506060820151816003019080519060200190610fd19291906119ce565b506080820151816004015560a08201518160050155905050601060003373ffffffffffffffffffffffffffffffffffffffff1673ffffffffffffffffffffffffffffffffffffffff168152602001908152602001600020600990806001815401808255809150506001900390600052602060002090600602016000909190919091506000820154816000015560018201816001019080546110719061232c565b61107c929190611a54565b5060028201816002019080546110919061232c565b61109c929190611a54565b5060038201816003019080546110b19061232c565b6110bc929190611a54565b506004820154816004015560058201548160050155505060086009908060018154018082558091505060019003906000526020600020906006020160009091909190915060008201548160000155600182018160010190805461111e9061232c565b611129929190611a54565b50600282018160020190805461113e9061232c565b611149929190611a54565b50600382018160030190805461115e9061232c565b611169929190611a54565b5060048201548160040155600582015481600501555050600460003373ffffffffffffffffffffffffffffffffffffffff1673ffffffffffffffffffffffffffffffffffffffff16815260200190815260200160002060008154809291906111d0906123bc565b9190505550600260008154809291906111e8906123bc565b919050555050505050565b60036020528060005260406000206000915090508060000154908060010160009054906101000a900473ffffffffffffffffffffffffffffffffffffffff16905082565b6008818154811061124757600080fd5b90600052602060002090600602016000915090508060000154908060010180546112709061232c565b80601f016020809104026020016040519081016040528092919081815260200182805461129c9061232c565b80156112e95780601f106112be576101008083540402835291602001916112e9565b820191906000526020600020905b8154815290600101906020018083116112cc57829003601f168201915b5050505050908060020180546112fe9061232c565b80601f016020809104026020016040519081016040528092919081815260200182805461132a9061232c565b80156113775780601f1061134c57610100808354040283529160200191611377565b820191906000526020600020905b81548152906001019060200180831161135a57829003601f168201915b50505050509080600301805461138c9061232c565b80601f01602080910402602001604051908101604052809291908181526020018280546113b89061232c565b80156114055780601f106113da57610100808354040283529160200191611405565b820191906000526020600020905b8154815290600101906020018083116113e857829003601f168201915b5050505050908060040154908060050154905086565b6010602052816000526040600020818154811061143757600080fd5b9060005260206000209060060201600091509150508060000154908060010180546114619061232c565b80601f016020809104026020016040519081016040528092919081815260200182805461148d9061232c565b80156114da5780601f106114af576101008083540402835291602001916114da565b820191906000526020600020905b8154815290600101906020018083116114bd57829003601f168201915b5050505050908060020180546114ef9061232c565b80601f016020809104026020016040519081016040528092919081815260200182805461151b9061232c565b80156115685780601f1061153d57610100808354040283529160200191611568565b820191906000526020600020905b81548152906001019060200180831161154b57829003601f168201915b50505050509080600301805461157d9061232c565b80601f01602080910402602001604051908101604052809291908181526020018280546115a99061232c565b80156115f65780601f106115cb576101008083540402835291602001916115f6565b820191906000526020600020905b8154815290600101906020018083116115d957829003601f168201915b5050505050908060040154908060050154905086565b60015481565b60008054906101000a900473ffffffffffffffffffffffffffffffffffffffff1673ffffffffffffffffffffffffffffffffffffffff163373ffffffffffffffffffffffffffffffffffffffff16141561166b57600080fd5b600073ffffffffffffffffffffffffffffffffffffffff168273ffffffffffffffffffffffffffffffffffffffff1614156116db576040517f08c379a00000000000000000000000000000000000000000000000000000000081526004016116d290612451565b60405180910390fd5b8173ffffffffffffffffffffffffffffffffffffffff166108fc829081150290604051600060405180830381858888f19350505050158015611721573d6000803e3d6000fd5b505050565b6060601060008373ffffffffffffffffffffffffffffffffffffffff1673ffffffffffffffffffffffffffffffffffffffff168152602001908152602001600020805480602002602001604051908101604052809291908181526020016000905b8282101561198d57838290600052602060002090600602016040518060c0016040529081600082015481526020016001820180546117c49061232c565b80601f01602080910402602001604051908101604052809291908181526020018280546117f09061232c565b801561183d5780601f106118125761010080835404028352916020019161183d565b820191906000526020600020905b81548152906001019060200180831161182057829003601f168201915b505050505081526020016002820180546118569061232c565b80601f01602080910402602001604051908101604052809291908181526020018280546118829061232c565b80156118cf5780601f106118a4576101008083540402835291602001916118cf565b820191906000526020600020905b8154815290600101906020018083116118b257829003601f168201915b505050505081526020016003820180546118e89061232c565b80601f01602080910402602001604051908101604052809291908181526020018280546119149061232c565b80156119615780601f1061193657610100808354040283529160200191611961565b820191906000526020600020905b81548152906001019060200180831161194457829003601f168201915b505050505081526020016004820154815260200160058201548152505081526020019060010190611787565b505050509050919050565b6040518060c001604052806000815260200160608152602001606081526020016060815260200160008152602001600081525090565b8280546119da9061232c565b90600052602060002090601f0160209004810192826119fc5760008555611a43565b82601f10611a1557805160ff1916838001178555611a43565b82800160010185558215611a43579182015b82811115611a42578251825591602001919060010190611a27565b5b509050611a509190611ae1565b5090565b828054611a609061232c565b90600052602060002090601f016020900481019282611a825760008555611ad0565b82601f10611a935780548555611ad0565b82800160010185558215611ad057600052602060002091601f016020900482015b82811115611acf578254825591600101919060010190611ab4565b5b509050611add9190611ae1565b5090565b5b80821115611afa576000816000905550600101611ae2565b5090565b600081519050919050565b600082825260208201905092915050565b6000819050602082019050919050565b6000819050919050565b611b3d81611b2a565b82525050565b600081519050919050565b600082825260208201905092915050565b60005b83811015611b7d578082015181840152602081019050611b62565b83811115611b8c576000848401525b50505050565b6000601f19601f8301169050919050565b6000611bae82611b43565b611bb88185611b4e565b9350611bc8818560208601611b5f565b611bd181611b92565b840191505092915050565b600060c083016000830151611bf46000860182611b34565b5060208301518482036020860152611c0c8282611ba3565b91505060408301518482036040860152611c268282611ba3565b91505060608301518482036060860152611c408282611ba3565b9150506080830151611c556080860182611b34565b5060a0830151611c6860a0860182611b34565b508091505092915050565b6000611c7f8383611bdc565b905092915050565b6000602082019050919050565b6000611c9f82611afe565b611ca98185611b09565b935083602082028501611cbb85611b1a565b8060005b85811015611cf75784840389528151611cd88582611c73565b9450611ce383611c87565b925060208a01995050600181019050611cbf565b50829750879550505050505092915050565b60006020820190508181036000830152611d238184611c94565b905092915050565b6000604051905090565b600080fd5b600080fd5b600073ffffffffffffffffffffffffffffffffffffffff82169050919050565b6000611d6a82611d3f565b9050919050565b611d7a81611d5f565b8114611d8557600080fd5b50565b600081359050611d9781611d71565b92915050565b600060208284031215611db357611db2611d35565b5b6000611dc184828501611d88565b91505092915050565b60008115159050919050565b611ddf81611dca565b82525050565b6000602082019050611dfa6000830184611dd6565b92915050565b611e0981611b2a565b8114611e1457600080fd5b50565b600081359050611e2681611e00565b92915050565b600060208284031215611e4257611e41611d35565b5b6000611e5084828501611e17565b91505092915050565b600060c083016000830151611e716000860182611b34565b5060208301518482036020860152611e898282611ba3565b91505060408301518482036040860152611ea38282611ba3565b91505060608301518482036060860152611ebd8282611ba3565b9150506080830151611ed26080860182611b34565b5060a0830151611ee560a0860182611b34565b508091505092915050565b60006020820190508181036000830152611f0a8184611e59565b905092915050565b611f1b81611b2a565b82525050565b6000602082019050611f366000830184611f12565b92915050565b611f4581611d5f565b82525050565b6000602082019050611f606000830184611f3c565b92915050565b6000604082019050611f7b6000830185611f12565b611f886020830184611f3c565b9392505050565b60008060408385031215611fa657611fa5611d35565b5b6000611fb485828601611d88565b9250506020611fc585828601611e17565b9150509250929050565b600080fd5b600080fd5b7f4e487b7100000000000000000000000000000000000000000000000000000000600052604160045260246000fd5b61201182611b92565b810181811067ffffffffffffffff821117156120305761202f611fd9565b5b80604052505050565b6000612043611d2b565b905061204f8282612008565b919050565b600067ffffffffffffffff82111561206f5761206e611fd9565b5b61207882611b92565b9050602081019050919050565b82818337600083830152505050565b60006120a76120a284612054565b612039565b9050828152602081018484840111156120c3576120c2611fd4565b5b6120ce848285612085565b509392505050565b600082601f8301126120eb576120ea611fcf565b5b81356120fb848260208601612094565b91505092915050565b6000806000806080858703121561211e5761211d611d35565b5b600061212c87828801611e17565b945050602085013567ffffffffffffffff81111561214d5761214c611d3a565b5b612159878288016120d6565b935050604085013567ffffffffffffffff81111561217a57612179611d3a565b5b612186878288016120d6565b925050606085013567ffffffffffffffff8111156121a7576121a6611d3a565b5b6121b3878288016120d6565b91505092959194509250565b600082825260208201905092915050565b60006121db82611b43565b6121e581856121bf565b93506121f5818560208601611b5f565b6121fe81611b92565b840191505092915050565b600060c08201905061221e6000830189611f12565b818103602083015261223081886121d0565b9050818103604083015261224481876121d0565b9050818103606083015261225881866121d0565b90506122676080830185611f12565b61227460a0830184611f12565b979650505050505050565b600061228a82611d3f565b9050919050565b61229a8161227f565b81146122a557600080fd5b50565b6000813590506122b781612291565b92915050565b600080604083850312156122d4576122d3611d35565b5b60006122e2858286016122a8565b92505060206122f385828601611e17565b9150509250929050565b7f4e487b7100000000000000000000000000000000000000000000000000000000600052602260045260246000fd5b6000600282049050600182168061234457607f821691505b60208210811415612358576123576122fd565b5b50919050565b7f4e487b7100000000000000000000000000000000000000000000000000000000600052603260045260246000fd5b7f4e487b7100000000000000000000000000000000000000000000000000000000600052601160045260246000fd5b60006123c782611b2a565b91507fffffffffffffffffffffffffffffffffffffffffffffffffffffffffffffffff8214156123fa576123f961238d565b5b600182019050919050565b7f53656e64657220616464726573732063616e6e6f74206265207a65726f2e0000600082015250565b600061243b601e836121bf565b915061244682612405565b602082019050919050565b6000602082019050818103600083015261246a8161242e565b905091905056fea264697066735822122004ca8b27f33caabc770c833c811bcbef2b6da6d5cf97c2f032459a405540bf2064736f6c63430008090033",
  "immutableReferences": {},
  "source": "// SPDX-License-Identifier: MIT\r\npragma solidity ^0.8.9;\r\n\r\n\r\ncontract SocialMedia{\r\n\r\n\r\n    address public owner;\r\n    \r\n    uint256 public user_counter;  // counter for user id and used as a user id\r\n   uint256 public post_counter;  // counter for total posts \r\n\r\n    modifier notOwner(){\r\n        require(msg.sender!= owner);\r\n        _;\r\n    }\r\n    \r\n\r\n// structure for user\r\n    struct User{\r\n        uint256 user_id;\r\n       \r\n        address user_addr;\r\n      \r\n\r\n    }\r\n// struct for post\r\n    struct Post{\r\n        uint256 userId;\r\n        string _postImageHash;\r\n        string authorName;\r\n        string Description;\r\n        uint256 timestamp;\r\n        uint256 post_id;\r\n       \r\n    }\r\n\r\n    \r\n    mapping(address => User) public users;\r\n    mapping(address => uint256) public post_countermap;  // track total posts by user we can also get post by couting array length of posts\r\n    \r\n    User[] public userslist; // list of all users\r\n    User userInfo;\r\n    Post[] public postslist;  // list of all posts\r\n    Post postInfo;\r\n\r\n    mapping(address => bool) public notfirst_time; // check if user eneterd first time or not \r\n    mapping (address => Post[]) public addressToUserPost; // contains all posts by a particular user\r\n    mapping (uint256 => address) public postToUserAddress; // mapping to get user address form user id\r\n\r\n    constructor(){\r\n\r\n        owner = msg.sender;\r\n        \r\n}\r\n    \r\n\r\n   \r\n    event TransferReceived(address sender, uint256 amount);\r\n\r\n    function SetPost( uint256 userId , string memory userName, string memory postDescription , string memory imageHash ) public{\r\n         \r\n        first_time(msg.sender); // check if user appeared before or not\r\n        postToUserAddress[userId] = msg.sender;\r\n        postInfo= Post(userId,imageHash,userName,postDescription,block.timestamp,post_countermap[msg.sender]); //get  post info\r\n        addressToUserPost[msg.sender].push(postInfo); // send Post to users post collection\r\n        postslist.push(postInfo);\r\n        post_countermap[msg.sender]++;\r\n        post_counter++;\r\n\r\n       \r\n    }\r\n\r\n\r\n// get all posts\r\n    function getallposts() public view returns(Post[] memory){\r\n    return postslist;\r\n    }\r\n\r\n// get post by id\r\n\r\n    function getpostbyid(uint256 id) public view returns(Post memory){\r\n        return postslist[id];\r\n    }\r\n\r\n// get post by particular user by id\r\n\r\n    function getpostsbyuser(address user_addr,uint256 id) public view returns(Post memory){\r\n        return addressToUserPost[user_addr][id];\r\n    }\r\n\r\n// get all posts by a particular user\r\n\r\n    function getallpostbyuser(address user_addr) public view returns (Post[] memory){\r\n        return addressToUserPost[user_addr];\r\n    }\r\n\r\n// you can send eth to user if you like the post \r\n     function SupportMe( address payable sender,uint256 amount ) notOwner payable external {\r\n        require(sender != address(0), \"Sender address cannot be zero.\");\r\n        sender.transfer(amount);\r\n    }\r\n\r\n   \r\n   \r\n    function first_time(address user_addr) public{\r\n             \r\n    if(notfirst_time[user_addr]){\r\n\r\n    }\r\n    \r\n    else{\r\n       \r\n       notfirst_time[user_addr]=true;\r\n       userInfo = User(user_counter,user_addr);\r\n       user_counter++;\r\n       userslist.push(userInfo);\r\n       users[user_addr]=userInfo;\r\n       \r\n       \r\n    }\r\n    \r\n    }\r\n}",
  "sourcePath": "C:\\Users\\91831\\Desktop\\PROJECTS\\social_media_dapp\\contracts\\SocialMedia.sol",
  "compiler": {
    "name": "solc",
    "version": "0.8.9+commit.e5eed63a.Emscripten.clang"
  },
  "schemaVersion": "3.4.3",
  "updatedAt": "2022-01-25T07:30:26.056Z",
  "devdoc": {
    "kind": "dev",
    "methods": {},
    "version": 1
  },
  "userdoc": {
    "kind": "user",
    "methods": {},
    "version": 1
  }
}